:0300000002046A8D
:10046A0075C7AA75C75575FD5A75C7AA75C7557553
:10047A00FDA5787FE4F6D8FD9000007FFF7E03E4B7
:0C048A00F0A3DFFCDEFA7581290204F209
:1003EE0053B1FE53B2FE53B1FD53B2FD53B3FE53A0
:1003FE00B4FE53B3DF53B4DFE5F354FC4FF5F3ED26
:10040E0025E025E0FFE5F354F34FF5F3EBC454F08C
:10041E00FFE5F354EF4FF5F353F3DF53F37F43F35D
:02042E0040226A
:1004C1007D807CC1E58954F04401F589438E08D2D1
:1004D1008CEF1FAA0670011E4A600B8D8A8C8C302E
:0804E1008DFDC28D80EBC28C81
:0104E90022F0
:10029E008F218E208D1F8C1E53B1BF53B2BF53B111
:1002AE007F53B27F759852438780AB21AA20A91F36
:1002BE00A81E7F407E427D0F7C0012003FC374FF5C
:1002CE009FFF74FF9EFEE49DFDE49CFC78081200E7
:1002DE00D18FC6AB21AA20A91FA81E7F407E427DCA
:1002EE000F7C0012003FC374FF9FFF8FC553C4F8ED
:0402FE0043C42822AB
:0804EA003099FDC2998F99229F
:1004960020C01243B30843B40843B31043B410D288
:1004A60093D294801043B10443B20443B34043B49F
:0B04B60040D282D29675BE03D2C6224F
:100430007529AFE4FFFED2C5EE7028ADBDED24C036
:10044000601124E8601324507011C2C58529BCC214
:10045000C38008C2C2C2C380027E01EE700520C301
:09046000D780FBAFBCD2C4C2C3BB
:010469002270
:0401B1008E128F1308
:1001B500E512540FFEE47807CEC313CE13D8F944E5
:1001C500A0F514E4F515751601F517D2C5E51570FA
:1001D5004FAFBDEF24F0602924F8601824F0601BB0
:1001E50024E860292448603124F07028E516602948
:1001F500C2C580128513BCC2C3801ED2C5C2C380CE
:1002050018C2C54314018514BCC2C3800CC2C37592
:1002150015018005AFBD1204EA30C3FDE51560ADDB
:0902250085BC17D2C4C2C3AF1797
:01022E0022AD
:0A011E008E088F098B0A8A0B890CEA
:10012800E508540FFEE47807CEC313CE13D8F9447C
:10013800A0F50EE4F50F751001F511D2C5D2C2E590
:100148000F705FAFBDEF24F0602D24F8601C24F021
:10015800601F24E8602D24F0602B2458603D24F0B3
:100168007034E5106035C2C580128509BCC2C380F1
:100178002AD2C5C2C38024C2C5430E01850EBCC2A3
:10018800C38018800BE51164037005750F01C2C2A6
:10019800C2C305118005AFBD1204EA30C3FDE50FE7
:0801A800609DD2C4C2C37F01B7
:0101B000222C
:04022F008E188F197D
:10023300E518540FFEE47807CEC313CE13D8F94460
:10024300A0F51AE4F51BF51CF51DD2C5E51B704896
:10025300AFBDEF24E8601524F0601924306030242A
:10026300F07027C2C5851ABCC2C38023E519F5BC4B
:10027300C2C3801B851CBC051C051DE51D641270D3
:1002830005751B01D2C4C2C38005AFBD1204EAE5E4
:0A0293001B700520C3B680FB7F77C7
:01029D00223E
:040359008E268F2736
:10035D00E526540FFEE47807CEC313CE13D8F94427
:10036D00A0F528E4FFD2C5EF702CAEBDEE24E860F9
:10037D001124F0601524207017C2C58528BCC2C396
:10038D00800EE527F5BCC2C380068DBC7F01C2C3BC
:0C039D0030C3FDEF60D1D2C4C2C37F01A9
:0103A9002231
:100302007F007E247DF47C001200E4031D000027A0
:1003120010031D00F424000000031DE595700CF588
:10032200257524247523F4F5228023AF95EF25E06B
:10033200FFE433AB07FA3395E0F9F87F007E247DC2
:10034200F47C001203AA8F258E248D238C22AF25E4
:06035200AE24AD23AC2235
:010358002282
:0804F20053B3FB43B40480FE88
:1000030075F008758200EF2FFFEE33FECD33CDCCB4
:1000130033CCC58233C5829BED9AEC99E582984037
:100023000CF582EE9BFEED9AFDEC99FC0FD5F0D614
:10003300E4CEFBE4CDFAE4CCF9A88222B800C1B93E
:100043000059BA002DEC8BF084CFCECDFCE5F0CB7C
:10005300F97818EF2FFFEE33FEED33FDEC33FCEBB5
:1000630033FB10D703994004EB99FB0FD8E5E4F970
:10007300FA227818EF2FFFEE33FEED33FDEC33FC5D
:10008300C933C910D7059BE99A4007EC9BFCE99A51
:10009300F90FD8E0E4C9FAE4CCFB2275F010EF2F96
:1000A300FFEE33FEED33FDCC33CCC833C810D70796
:1000B3009BEC9AE899400AED9BFDEC9AFCE899F8D1
:0E00C3000FD5F0DAE4CDFBE4CCFAE4C8F92264
:1003AA00C2D5E830E70FB2D5E4C39BFBE49AFAE47E
:1003BA0099F9E498F8EC30E717B2D51203E0120085
:1003CA003FE4C39BFBE49AFAE499F9E498F88003C2
:1003DA0012003F30D50DE4C39FFFE49EFEE49DFD6D
:0403EA00E49CFC2271
:1000D100E8600FECC313FCED13FDEE13FEEF13FF0D
:0300E100D8F12231
:1000E400D083D082E4937012740193700DA3A39310
:1000F400F8740193F5828883E4737402936C70122C
:100104007403936D700C7404936E70067405936F8E
:0A01140060DDA3A3A3A3A3A380CA88
:00000001FF
